:020000041000EA
:1000000000B50C4B00219960042159610A4919601F
:100010000A490B480160002159600121996001BC27
:10002000002800D0004707480749086003C880F34C
:10003000088808470000001800031F00180200038A
:10004000F40000180001001008ED00E000000000BE
:1000500000000000000000000000000000000000A0
:100060000000000000000000000000000000000090
:100070000000000000000000000000000000000080
:100080000000000000000000000000000000000070
:100090000000000000000000000000000000000060
:1000A0000000000000000000000000000000000050
:1000B0000000000000000000000000000000000040
:1000C0000000000000000000000000000000000030
:1000D0000000000000000000000000000000000020
:1000E0000000000000000000000000000000000010
:1000F0000000000000000000000000002CEC210DBA
:1001000000200420F7010010C3010010C5010010F9
:10011000C1010010C1010010C1010010C101001097
:10012000C1010010C1010010C1010010C701001081
:10013000C1010010C1010010C9010010CB01001065
:10014000CD010010CD010010CD010010CD01001037
:10015000CD010010CD010010CD010010CD01001027
:10016000CD010010CD010010CD010010CD01001017
:10017000CD010010CD010010CD010010CD01001007
:10018000CD010010CD010010CD010010CD010010F7
:10019000CD010010CD010010CD010010CD010010E7
:1001A000CD010010CD010010CD010010CD010010D7
:1001B000CD010010CD010010CD010010CD010010C7
:1001C00000BE00BE00BE00BE00BE00BEEFF3058054
:1001D000103800BEF2EB88710C3B00102C3B001075
:1001E0003402001090A31AE700201F49086006C8D7
:1001F00081F3088810471D48006800282FD10DA4FE
:100200000ECC002902D000F012F8F9E71849194A7B
:10021000002000E001C19142FCD1174988471749ED
:1002200088471749884700BEFDE701C901C29A42C5
:10023000FBD370472C3B0010C0000020900300202F
:10024000FC3D00100000042000000420FC3D0010D4
:10025000001004200010042000000000704709482E
:1002600002F0C6FD0047000008ED00E0000000D0ED
:10027000900300202C0A0020692C00107D11001032
:100280005D2D00105756000006005250ABB360536E
:10029000AC3A001006005250861C0302CC3A001003
:1002A000060052505422A29DD83A00100500525028
:1002B000DE65F468FC3D0010F8B5C0460448054B07
:1002C00010B5834203D0044B002B00D0984710BDDB
:1002D000900300209003002000000000064807491A
:1002E000091A8B10C90FC91810B5491003D0044B57
:1002F000002B00D0984710BD9003002090030020F1
:100300000000000010B5074C2378002B09D1FFF73F
:10031000D5FF054B002B02D0044800E000BF0123AD
:10032000237010BD9805002000000000F038001078
:10033000054B10B5002B03D00449054800E000BF71
:10034000FFF7CCFF10BDC046000000009C05002058
:10035000F03800101C4BF0B500255D5FA72D23D0B1
:1003600020211A4A93691942FCD1A72320210D2785
:100370001360164A461D0478A54210D093691942AD
:10038000FCD101301460B042F5D17A2D14D0202177
:100390000E4A93691942FCD17A231360F0BD936928
:1003A0001942FCD11760E9E72021084A93691942F4
:1003B000FCD10D231360D3E72021044A936919422D
:1003C000FCD10D231360E2E7200900200040034028
:1003D0001C4BF0B500255D5FA72D23D020211A4AC4
:1003E00093691942FCD1A72320210D271360164AD7
:1003F000C61D0478A54210D093691942FCD1013082
:100400001460B042F5D17A2D14D020210E4A9369A0
:100410001942FCD17A231360F0BD93691942FCD1D3
:100420001760E9E72021084A93691942FCD10D239E
:100430001360D3E72021044A93691942FCD10D23AC
:100440001360E2E720090020004003401D4BF0B597
:1004500000255D5FA72D24D020211B4A93691942F6
:10046000FCD1A723060020210D271360164A083669
:100470000478A54210D093691942FCD10130146070
:10048000B042F5D17A2D14D020210F4A9369194238
:10049000FCD17A231360F0BD93691942FCD1176037
:1004A000E9E72021084A93691942FCD10D23136022
:1004B000D2E72021044A93691942FCD10D2313602D
:1004C000E2E7C04620090020004003401D4BF0B584
:1004D00000255D5FA72D24D020211B4A9369194276
:1004E000FCD1A723060020210D271360164A1336DE
:1004F0000478A54210D093691942FCD101301460F0
:10050000B042F5D17A2D14D020210F4A93691942B7
:10051000FCD17A231360F0BD93691942FCD11760B6
:10052000E9E72021084A93691942FCD10D231360A1
:10053000D2E72021044A93691942FCD10D231360AC
:10054000E2E7C0462009002000400340394BF0B5E7
:1005500000255D5F06000F00A72D43D02021364AFD
:1005600093691942FCD1A7231360002D5AD0202291
:10057000314910008B6918401A42FAD10860002DE9
:1005800048D020222C4910008B6918401A42FAD119
:100590000860AE4236D02021274A93691942FCD127
:1005A0001660002E0ED00D23002020219C46224AEA
:1005B0003C5CA54210D093691942FCD10130146013
:1005C000B042F5DB7A2D15D020211B4A93691942E0
:1005D000FCD17A231360F0BD93691942FCD16346C4
:1005E0001360E8E72021144A93691942FCD10D23D6
:1005F0001360B3E72021104A93691942FCD10D23FF
:100600001360E1E720210C4A93691942FCD10D23C4
:100610001360C0E72021084A93691942FCD10D23D9
:100620001360AEE72021044A93691942FCD10D23DF
:1006300013609CE720090020004003401A2300B506
:1006400087B001A80370053343700F3B8370124BD2
:100650001A78C2705A7802719A784271DA78827187
:100660001A79C2715A7902729A794272DA7982726F
:100670001A7AC2725A7A02739A7A4273DA7A827357
:100680001A7BC2735A7B02749A7BDB7B427483743D
:10069000FFF71CFF07B000BD00090020F0B585B0D2
:1006A0006D4668700C203324A87008782C70E870B0
:1006B000487828718878C9786871A9711178E971CA
:1006C000517829729178D2786972AA721A78EA728E
:1006D0005A782A739A78DB786A73AB731D4B0025BE
:1006E0005D5FA72D26D020211B4A93691942FCD1BA
:1006F000A7230F26684620210D271360164A6E4453
:100700000478A54211D093691942FCD101301460DC
:10071000B042F5D17A2D15D020210F4A93691942A4
:10072000FCD17A23136005B0F0BD93691942FCD166
:100730001760E8E72021084A93691942FCD10D238C
:100740001360D0E72021044A93691942FCD10D239C
:100750001360E1E72009002000400340F0B5313884
:10076000C0B287B00E2800D98DE0954B80001B5891
:100770009F4600F01DFD03000100021D08333F20CD
:10078000FFF78CFF00F042FD03000100021D08335B
:100790003F20FFF783FF00F067FD03000100021D0B
:1007A00008333F20FFF77AFF00F08CFD03000100C3
:1007B000021D08333F20FFF771FF332700F0B2FD21
:1007C0003F26102301AC27706670A3700378E37096
:1007D0004378237183786371C378A3710379E371DC
:1007E0004379237283796372C379A372037AE372C4
:1007F000437A2373837A6373C37AA373037BE373AC
:10080000437B2374837B6374C37B2000A374FFF753
:100810005DFE00F0A7FD03000100021D08333F202C
:10082000FFF73CFF00F0CCFD03000100021D083380
:100830003F20FFF733FF00F0FBFD624B0193207177
:100840002000FFF787FD00F0F9FD050000F0FCFD3A
:100850002D022843022583B21B0AE3702071277002
:1008600020006670A570FFF775FD00F0D7FD02F05F
:1008700025FE80B2030A2071277020006670A570E3
:10088000E370FFF767FD07B0F0BD00F091FC0300D7
:100890000100021D08333120FFF700FFF3E700F0ED
:1008A000B5FC03000100021D08333220FFF7F6FEFD
:1008B000E9E700F0D9FC03000100021D08333320F2
:1008C000FFF7ECFEDFE700F0FDFC03000100021D76
:1008D00008333420FFF7E2FED5E700F023FD332292
:1008E000030001A8027002324270253A82701A7821
:1008F000C2705A7802719A784271DA7882711A79E4
:10090000C2715A7902729A794272DA7982721A7ACB
:10091000C2725A7A02739A7A4273DA7A82731A7BB3
:10092000C2735A7B02749A7B4274DB7B8374FFF739
:10093000CDFDA8E700F016FD03000100021D0833FD
:100940003620FFF7ABFE9EE700F03AFD0300010002
:10095000021D08333720FFF7A1FE94E700F068FD81
:10096000194B019301AB18711800FFF7F3FC8AE7EC
:1009700000F064FD040000F067FD3322230203430E
:1009800001A8027006324270373A82709AB2120A97
:10099000C2700371FFF7DEFC75E700F03FFD02F067
:1009A0008DFD332283B201A8027007324270383ABB
:1009B00082701A0AC2700371FFF7CCFC63E7C0466D
:1009C000F0380010333F020033380200E12110B547
:1009D000154C82B02000490201F074FE0221012072
:1009E00000F030FE0221002000F02CFEC022236B1C
:1009F000120213400D4A142013600D4900F0B6FE98
:100A00000121142000F098FE50236846A363626B16
:100A1000183B1340074A13600200074B12CB12C267
:100A2000FFF714FD02B010BD0040034030500340FA
:100A3000DD10001034500340183A001070B5040067
:100A400000F018FE0421200000F0FCFD0220220727
:100A5000520F93009B18134A9B009A181168124D6D
:100A6000084080214901114308600021C020116025
:100A70009160D1600D4911615060BF3810601561FF
:100A80000B4A94466344204209D00A480A491A682E
:100A900042401140802252011343196070BD074843
:100AA000F5E7C046000005409F0F0000FFFF000073
:100AB0000C0005400000DC050000FFFFDC05000025
:100AC00070B5040000F0D6FD0421200000F0BAFD4E
:100AD00002202207520F93009B18134A9B009A187A
:100AE0001168124D0840802149011143086000211E
:100AF000C02011609160D1600D490001116150600A
:100B00000120106015610B4A94466344204209D0CD
:100B100009480A491A684240114080225201134391
:100B2000196070BD0648F5E7000005400F2700007A
:100B3000FFFF00000C0005400000EE020000FFFF78
:100B4000EE020000F0B5C646164B0024984600B5EC
:100B5000154D164F164E2878FFF770FF43463E534B
:100B60001E5302340135102CF5D1124D0720FFF72A
:100B7000A7FF2A68104B114C53401B0C1B04236029
:100B80000620FFF79DFF2A680D4B53401B041B0CEA
:100B9000236001F0DFFA0B4B1860596080BCB84647
:100BA000F0BDC046100900202C3A001000090020BA
:100BB000DC050000480005400000EE02481005403A
:100BC000EE02000090050020F0B5DE4657464E4686
:100BD0004546E0B585B001F0BDFAB54B1A685B68D3
:100BE000121A8B411000FA221900D200002302F0E1
:100BF00025FC0F2900D959E100D153E10023AD4A6A
:100C000002F066F980B2AC4BFA241988AB4A8C46E4
:100C1000624492B20291A400A24206D8A84AA94C0A
:100C200012684A401204120C2260FA255C88A34A1A
:100C3000AD00A21892B2AA4206D8A34AA34D1268E8
:100C400062401204120C2A60FA269D889B4AB60064
:100C5000AA1892B2B24207D89D4A16682A04724076
:100C6000120C9C4E12043260D988FA278C46934AA3
:100C70000391624492B2BF00BA4206D8944A954F9B
:100C800012684A401204120C3A60FA261F898B4AF5
:100C9000B600BA1892B2B24206D88F4A8F4E126886
:100CA0007A401204120C32605A89FA269446834A1A
:100CB000B600624492B2B2420AD8874A126890469D
:100CC0006246464612047240120C844E1204326090
:100CD0009A89FA269046794AB600424492B2B242C4
:100CE00007D846467E4A1268724012047D4E120CA6
:100CF0003260DA89714E91464E4401923200FA26F2
:100D000092B2B600B2420AD8754A126891464E466F
:100D1000019A12047240120C724E12043260724A2E
:100D2000724E91461288B24207D8714E120436684C
:100D30007240120C6F4E120432604A466B4E52885B
:100D4000B24206D86A4E366872401204694E120CDE
:100D50003260694A02991688B246761AF117B3468C
:100D600076184E40B6B2B146012631005E46002EDE
:100D700000DC6249814506D30E004643B246029923
:100D8000514489B28A465146198051888A46091BC6
:100D9000CE178B46891971400126B1465E4689B24D
:100DA000002E01DC554EB146884204D849464143E5
:100DB0006418A1B28A46514659809488611BCE17A7
:100DC0008946891971400126B2464E4689B2002EE5
:100DD00001DC4A4EB246884203D8544644432C199B
:100DE000A4B29C80D5880399691A89464E46CC17CF
:100DF0000919614089B20124002E00DC3F4C884271
:100E000003D8444303990E19B5B2DD801589EE1B52
:100E1000F4173119614089B20124002E00DC374CEF
:100E2000884202D844433F19BDB261461D815589AD
:100E30006E1AF4173119614089B20124002E00DCCA
:100E40002E4C884202D844436444A5B241465D8199
:100E500095896E1AF4173119614089B20124002E68
:100E600000DC264C884202D844434444A5B29D810C
:100E7000D489019AA51AE9176A184A4092B2012149
:100E8000002D00DC1D49904204D8019A414394464C
:100E900061448CB2DC8105B0F0BCBB46B246A946C9
:100EA000A046F0BD164B984200D8A7E61348AAE624
:100EB0009005002040420F000009002018FCFFFFB1
:100EC000340005403410054084000540841005407E
:100ED00070000540701005405C0005405C10054046
:100EE0002000054020100540E4070020B80B00005A
:100EF000480005404810054010090020FFFF000091
:100F0000BFBD304230B56D4B83B05A789878DC78ED
:100F1000322A10D86A4992008A589746694B6A4922
:100F20006A4A0B6013604B6053608B609360CB60C8
:100F3000D360FFF749FE03B030BD0300303B0F2BF9
:100F4000F9D83D28F7D0FFF709FCF4E7002C00D0D2
:100F500095E0684602005E4B12CB12C2FFF776FAAC
:100F6000E9E7594B574A1A605A609A60DA60E0E73D
:100F7000082801D90F28DED1022C00D184E0102CE2
:100F8000D9D118795979504A0002091898791180F5
:100F9000D97900020918187A5180597A0002091883
:100FA000987A9180D97A00020918187BD180597BF0
:100FB00000020918987B1181D97B00020918187C5E
:100FC0005181597C000209189181997CDB7C0902CE
:100FD0005B18D381AFE7022CADD11A795B7912028D
:100FE0009B189BB2820701D5374A1380420701D56F
:100FF000354A5380020701D5334A9380C20601D592
:10100000314AD380820601D52F4A1381420601D589
:101010002D4A5381C00900D18DE72B4A93818AE77D
:10102000082839D90F2800D085E7FFF707FB82E7AA
:101030002F2800D07FE7042C00D07CE79979DA795B
:101040000902521819795B79224809025B1803805A
:10105000428070E76A462A2369461370053353704D
:101060002B3B93701B4B68461A78CA705A780A71EA
:101070009A78DB784A718B71FFF7AAF95BE7200059
:101080001549FFF763FA56E71A795B7912029B1844
:101090000D4A400083524EE76D46430068700220BF
:1010A0001A240A4AA870D118D35C6846EB704B78B2
:1010B0002C702B71FFF74EF93DE7C0462409002044
:1010C0002C390010DC05DC05100900200009002087
:1010D000183A0010E407002028090020F0B5C646A1
:1010E000224C00B5A369DB0610D4214B102598468D
:1010F000204E3178A3691D42FCD12368DBB2002960
:1011000007D1A72B1BD0A3691D42F3D080BCB846E2
:10111000F0BD032926D1184F5A1DD2B23A70302A99
:101120001BD8013A080091420FD0424601311354B6
:10113000C8B2282101F08EFEC9B23170E3E70E4F2C
:101140003A78012A09D00020EFE77A2B05D1084B25
:101150001B78A72B01D1FFF7D5FE002300213370A8
:101160003B70D0E7044F3A78DBE7C04600400340CD
:1011700024090020290A0020280A002000B585B093
:101180000A4803AB02AA01A900F0A0F9002806D181
:10119000FFF7D8FCFFF71AFCFFF716FDFCE7039AF0
:1011A0000299019800F056F9F2E7C0460077010075
:1011B00070B5134B134C0A229E5E0C229D5E0820D4
:1011C000185E02F0B3F800220F4B02F088F802F02C
:1011D000C5F82060300002F0A9F800220A4B02F0A6
:1011E0007EF802F0BBF86060280002F09FF8002251
:1011F000054B02F074F802F0B1F8A060200070BD59
:10120000D0060020B40500200000594070B5134BF3
:10121000134C10229E5E12229D5E0E20185E02F07C
:1012200085F800220F4B02F074F802F097F8206066
:10123000300002F07BF800220A4B02F06AF802F05C
:101240008DF86060280002F071F80022054B02F072
:1012500060F802F083F8A060200070BDD006002086
:10126000A40700200000B03F70B5134B134C1622AA
:101270009E5E18229D5E1420185E02F057F8002230
:101280000F4B02F046F802F069F82060300002F0DF
:101290004DF800220A4B02F03CF802F05FF8606063
:1012A000280002F043F80022054B02F032F802F069
:1012B00055F8A060200070BDD006002088070020EF
:1012C0000000B03F70B5134B134C1C229E5E1E22D3
:1012D0009D5E1A20185E02F029F800220F4B02F0E2
:1012E00018F802F03BF82060300002F01FF80022EE
:1012F0000A4B02F00EF802F031F86060280002F0AC
:1013000015F80022054B02F004F802F027F8A0605F
:10131000034870BDD0060020B00700200000B03F99
:1013200088070020F8B50D4B0D4C22229F5E242229
:101330009E5E26229D5E2020185E02F09DF82060B1
:10134000380002F099F86060300002F095F8A06073
:10135000280002F091F8E0602000F8BDD0060020DF
:10136000CC07002070B5134B134C2A229E5E2C2212
:101370009D5E2820185E01F0D9FF00220F4B01F07E
:10138000AEFF01F0EBFF2060300001F0CFFF002244
:101390000A4B01F0A4FF01F0E1FF6060280001F0BA
:1013A000C5FF0022054B01F09AFF01F0D7FFA060B6
:1013B000200070BDD0060020980700200000594092
:1013C00070B5134B134C30229E5E32229D5E2E2050
:1013D000185E01F0ABFF00220F4B01F080FF01F01F
:1013E000BDFF2060300001F0A1FF00220A4B01F098
:1013F00076FF01F0B3FF6060280001F097FF002244
:10140000054B01F06CFF01F0A9FFA060200070BD4A
:10141000D00600207C07002000005940342310B57E
:10142000024AD05C02F023F810BDC046D00600206E
:101430003523014AD05C7047D00600203923014A89
:10144000D05C7047D00600203A23014AD05C704738
:10145000D0060020F0B583B005000E00140000F0A7
:1014600027F9002801D003B0F0BD154F01223B0041
:1014700001210097053001F095F933002A0000940E
:101480000121104801F07CFB21002800714301F08C
:10149000E1FC04000C4B002200930221042001F027
:1014A00081F92300002201210094052001F07AF93E
:1014B0003B00022200210097062001F073F9D2E7D9
:1014C000006CDC0200800240001BB700F0B5DE4675
:1014D00057464E464546E0B5070085B004200393C5
:1014E0000191029201F046FBFA21890001F0B2FC61
:1014F00032238246FF33994686005644B6014F4B4D
:101500004F4AF318072493420ED901235B429C46AD
:101510005346E144F61A4B46002BF0D100205DE023
:10152000002900D186E0062421003000614301F04B
:1015300091FC874242D0631E9846012CE5D01D00E5
:1015400065433000290001F085FC87424DD0A31E81
:101550009B46022C4FD02D1B2900300001F07AFC55
:1015600087424AD0E31E9B46032C61D02D1B2900E5
:10157000300001F06FFC874243D0231F9B46042CB0
:1015800045D02D1B2900300001F064FC874240D07B
:10159000631F9B46052C42D02D1B2900300001F013
:1015A00059FC87423DD04346052B3FD03000E91F10
:1015B00001F050FC8742B3D00624B5E70029BAD128
:1015C000A0464246012073019B1B9B009E19019B74
:1015D000F6001E60029B1C60039B1A6005B0F0BC05
:1015E000BB46B246A946A046F0BD0029E9D0A31EDD
:1015F0009B46022CAFD1012496E70029B2D1D846F0
:10160000DFE70029FBD0231F9B46042CB9D103241C
:101610008AE70029F3D0631F9B46052CBCD1042424
:1016200082E70029EBD04346052BBFD105247BE799
:10163000022479E701239846C3E7C046508EF4FFA1
:1016400050F80C00094A830094464022634410B5C8
:101650001C68C0006240C024144080225201134321
:101660001C60034B9C466044416010BD04C00140B7
:10167000004001400123D02283401206936293610F
:10168000094A83009446402263441968C0004A40D6
:10169000C02111408022520113431960034B9C4624
:1016A000052360444360704704C00140004001408E
:1016B000024B18688007C00F7047C04600C0064044
:1016C00070B5EFF3108C72B60D4D2B68002BFCD06B
:1016D000BFF35F8F0724CB08C618C05C01230C4002
:1016E000A3401C000440034207D103433370BFF3FF
:1016F0005F8F2C608CF3108870BD100001F032FBFE
:101700002C0100D00021044B044ABFF35F8F02C3B9
:101710009342FAD17047C046000100D0800100D04A
:10172000044A1078431CDBB2172B00D91023137026
:101730007047C046D802002001238340002904D00E
:10174000034A1360034A13607047034A1360FBE7C0
:1017500080E200E000E100E080E100E0024B1030B8
:101760009B688000C058704700ED00E070B50D0028
:10177000EFF3108672B60F4A1368002BFCD0BFF34C
:101780005F8F0D4B10309B6884001B590B4A9342AE
:1017900003D09D4201D001F0FDFA074B9B681D511B
:1017A000BFF35F8FBFF35F8F0022024B1A6086F397
:1017B000108870BD240100D000ED00E0CD010010C4
:1017C000F0B5DE4657464E464546E0B50C0083B0C0
:1017D000EFF3108972B6584A1368002BFCD0BFF3A0
:1017E0005F8F564B9A68030010339F00D559544AB7
:1017F0009046954232D0A54243D0524EAA1B2F2A82
:101800002CD801228240924651464F4A126811401C
:10181000019151464D4A1160BFF35F8FEFF305828E
:101820009346002A33D101232A009A4393689C42AD
:1018300008D177E04B005B189B00F3189968A14230
:101840002AD01A00062151560029F3DA019B002BF9
:1018500019D052463E4B1A603B4B1A60374B9B687F
:10186000DD51BFF35F8FBFF35F8F0022324B1A60F1
:1018700089F3108803B0F0BCBB46B246A946A04627
:10188000F0BD1500EAE75246304B1A60E6E7934296
:10189000C9D001F07FFAC6E706215956002921DB9D
:1018A0004A005018800034188046A0689860E0799B
:1018B000D871062020569871002824DBA488F01ADD
:1018C0006405241544440019E0240005400D240259
:1018D0002043988052181F4B9200B6181A7819703E
:1018E000B271B3E7594600290FD1FF3191711A49FE
:1018F000918018490A789A71184A9B1B5B415A4398
:10190000120D0A70A2E71648E3E7164A1649D21AE2
:10191000083A5002400D01439980144952080A4385
:10192000DA8093E70621515613000029B8DA5A46A7
:10193000002AEAD14546DCE7240100D000ED00E0B2
:10194000CD010010DC02002000E100E080E100E0B9
:1019500080E200E0260A002001BDFFFFAAAA0000E5
:1019600001BD00001603002000F0FFFF00F8FFFF9C
:1019700070B5EFF3058101240443EFF3108C72B6C8
:10198000214A1368002BFCD0BFF35F8F1F4B05006B
:101990001F4AED1A6D416A43120D1E4D8900AE6853
:1019A00052B27658A6421CD00621595691421CD0FC
:1019B00012215956914222D01E215956914220D0CF
:1019C0002A2159560324914210D0134B19781A70CA
:1019D0008171BFF35F8F00220B4B1A608CF310886C
:1019E00070BDAB680D4C5C50EFE700246100091935
:1019F00089005B18FF21997109499980E5E7012465
:101A0000F4E70224F2E7C046240100D0DC02002003
:101A1000AAAA000000ED00E0260A0020CD01001077
:101A200001BDFFFF054B064A1360064A1360536071
:101A30009360D360136153619361704780808080AD
:101A400000E400E004E400E0024B9C4661448900AD
:101A5000016070474000003410B50400FFF760FEDD
:101A600001002000FFF7F0FFFF232371BFF35F8F1A
:101A700010BDC04610B50400FFF752FE0100200063
:101A8000FFF7E2FFFF23A380BFF35F8F10BDC046C7
:101A900083680B4810B58446614462440901120111
:101AA0009A18591854684B6801209C4201D802D0FA
:101AB0000020C0B210BD12680B689A42F9D8F7E74F
:101AC000FFFFFF0F0A4B1968EFF3108072B60A6828
:101AD000002AFCD0BFF35F8F1B68BFF35F8F00222B
:101AE0001A6080F3108840BF002000217047C04674
:101AF000EC080020F8B557464E464546DE46E0B5B0
:101B000099460CAB1C780DAB1B78060090469A46A4
:101B10000768002C11D1BC7B002C42D065003B68CB
:101B20002D19033D59194B78BB73002B00D1FB7362
:101B300000238B704B700B7004E065003B682D191F
:101B4000033D5919B2682A4B94464246E3181B01DB
:101B500063441A604A465A600A9A9A600B9ADA609D
:101B600000238B704B700B707B7B9B46002B2BD024
:101B700022005946B8687B6898473A68002816D012
:101B80005B4658465B005B445519033BA870D1186F
:101B9000D35C002B00D06B705B460C707B73A3454D
:101BA00013D0F0BCBB46B246A946A046F8BD5B4682
:101BB0005B005B44033BD3189C705119525D002AB3
:101BC00000D05A705B460B707C7342464B46307DAA
:101BD00000F010FB051E06D05346002B03D1210058
:101BE000306800F031FD0E9B002BDAD01D70D8E775
:101BF000FFFFFF0FF0B5DE4657464E464546002331
:101C0000E0B58BB00893664B8200D45800239B4606
:101C1000099000F09FFA626806000F00EFF310854C
:101C200072B61368002BFCD0BFF35F8F23689C460D
:101C30005B7B9946002B68D0A2685A4B90464B4478
:101C40001B01984443461A685B6810001900801B0A
:101C5000B941002963DD099800F0CCFA0023002285
:101C6000984600230692079300239A466368BFF3C1
:101C70005F8F5A461A6085F310885346002B08D1AF
:101C80000028C6D10BB0F0BCBB46B246A946A04660
:101C9000F0BD089B414618024B461843D047626886
:101CA00006000F00EFF3108572B61368002BFCD00E
:101CB000BFF35F8F002F4FDB33003B4302D023691C
:101CC000002B60D12368D97B002907D04A00521825
:101CD00019688C4649466244033A51709A7B002A3F
:101CE00001D14A469A734A46DA734B46E168013B92
:101CF000CA5C0132CA545B4623616368BFF35F8FDD
:101D00005A461A6085F3108883E70023002298461C
:101D1000002306920793002300209A46A6E7002995
:101D200001D1002897D10021604600F00BFC43460A
:101D30001A685B680692079343469B689A46434637
:101D4000DB689846E3684B44013B1B7808931B0211
:101D500003432361002089E72369002BB2D0069A50
:101D6000079B921BBB41002B15DB594604910121B7
:101D7000039149460291414601915146200000914C
:101D8000FFF7B8FEB7E700F0E5F932003B001218A4
:101D90004B41002BE9DA0122034B5242E5E7C046F2
:101DA000BC070020FFFFFF0FFFFFFF7F10B5144CA3
:101DB0006368002B04D00A211248FFF745FE10BDCE
:101DC0002300114A1021206800F0D6FA032000F009
:101DD000B5F9032000F07EFA03200C4900F0C4F9A5
:101DE000FFF79EFC0A4B9C4603232375D0231B065A
:101DF0001B6860446375074B80006060DC60DAE755
:101E000024030020EC080020911A0010F51B00109C
:101E100040000034BC070020F0B557464E4645460A
:101E2000DE46E0B585B0019310AB1B780600039346
:101E300000239A46984600927268EFF3108972B6B2
:101E40001368002BFCD0BFF35F8F3568AC7B002C90
:101E500049D067002B683F19033FDB195A78AA73F2
:101E6000002A00D1EA73B168484A8C46009801996B
:101E7000A21812016244106051600E9991600F998E
:101E8000D16042469A705A701A706B7B9B46002B49
:101E900045D022001900A8686B6898472A68002876
:101EA00030D05B4658465B005B44D719033BB870A3
:101EB000D118D35C002B00D07B705B460C706B7329
:101EC0005C452DD0F3681B19013B18787368BFF38C
:101ED0005F8F42461A6089F310885346002B2CD13D
:101EE0000002204307E07368BFF35F8F1C6089F333
:101EF00010880120404205B0F0BCBB46B246A9465E
:101F0000A046F0BD5B465B005B44033BD3189C706E
:101F1000D119D25D002A00D05A705B460B706C73E9
:101F2000307D009A019B00F065F982460028C9D0F7
:101F30002100306800F088FBC4E7039B002B23D00E
:101F40000E9B00200F999847030004000D000B43DF
:101F50001AD000290ADA009A019B121BAB410092A9
:101F60000193002B0ADB039B9A4665E700F0F2F829
:101F700024184D4100940195002DF4DA0123044CFE
:101F80005B4200930194EEE70020B4E7FFFFFF0FF0
:101F9000FFFFFF7F70B542680400EFF3108572B653
:101FA0001368002BFCD0BFF35F8F2068CEB2437B59
:101FB000B3420AD0FF230B405A00D318026894465C
:101FC0006344033B9B78002B13D0E268FF239446C5
:101FD0000B406344013B0A0A1978D2B291420ED0F9
:101FE00000206368BFF35F8F00221A6085F31088BA
:101FF00070BD22698A42F3D100202361F1E73100EC
:1020000000F022FBEDE7C04670B5EFF30583050055
:102010000C0084B0002B0AD0164A0020536A9C4260
:1020200003D8926A0130AA421FD304B070BD124E89
:1020300002930193114B0200009330000B00FFF755
:10204000EBFE011EE8DD20BF3000FFF7A3FF094BC8
:102050000020596A8C42E8D89B6A0130AB42E4D236
:10206000641A631E9C41E0B2DFE7E41A631E9C41E0
:10207000E0B2DAE70040054024030020C51A001052
:10208000F0B5EFF30582D6464F4646461000C0B580
:102090001038EFF3108872B6214C2368002BFCD067
:1020A000BFF35F8F0123190081401E4D1F0069633C
:1020B000AA461D4D29601D4D2E78AC463500C54001
:1020C0002F402B4209D1BFF35F8F276088F3108820
:1020D000E0BCBA46B146A846F0BD5346144D5F6A0F
:1020E00083005D59AF420ED3124A8E439B5862461D
:1020F0001670BFF35F8F0022226088F31088002BD8
:10210000E6D09847E4E70C4B92009C466244136883
:102110001360BFF35F8F0023236088F31088D7E735
:10212000280100D0004005403C700540270A0020EF
:10213000F0080020C0050020D03F054010B5010088
:10214000024A0348FFF7BCFA10BDC046343A0010FB
:10215000250A0020034B596A0A00986A596A8A4284
:10216000FAD170470040054070B504000D00EFF350
:10217000108672B61A4A1368002BFCD0BFF35F8F2B
:10218000002D1BD02000FFF7E9FA164981420AD042
:102190002000FFF7EBFA01212000FFF7CDFA012321
:1021A000A340114A1360114BA400E550BFF35F8FA9
:1021B00000220B4B1A6086F3108870BD0B4BA200F7
:1021C000D5500122A2400A4920000B7893430B709E
:1021D0000449FFF7F5FA00212000FFF7ADFAE5E723
:1021E000280100D08120001038600540C005002083
:1021F000270A0020F0B54F46D6464646C0B5070030
:102200002F4C616A0D00A66A616AA942FAD18B421D
:1022100008D805D00120E0BCBA46B146A846F0BDBA
:10222000B242F7D9EFF3108A72B626480168002946
:10223000FCD0BFF35F8F0125BD402349204C884669
:10224000097889462943C9B28C46414660460870E0
:10225000391D1E48890065630A51B9000B50216A77
:102260000020294219D0616A0800A66A616A814289
:10227000FAD18B4219D801D1B24216D8CC451DD023
:102280000F4B1F201D625D6301230740BB40104AB6
:102290001E38136043464A461A70BFF35F8F002210
:1022A000084B1A608AF31088B5E70020BFF35F8FF0
:1022B0000022044B1A608AF31088ACE70120ECE797
:1022C00000400540280100D0270A0020F008002027
:1022D00080E200E0EFF3108C72B60A490B68002B25
:1022E000FCD0BFF35F8F01238340074A0748136286
:1022F00002789A430270BFF35F8F00230B608CF368
:1023000010887047280100D000400540270A0020AF
:1023100070B5050014001600002915D00C00002A25
:1023200012D080686B689847296800280ED0730027
:102330009B196200033B1219CB18033A9C70881852
:102340008A5C002A15D10670200070BD63001B193D
:102350007200033B9219CB18033A9E7088188A5C6E
:10236000002A02D104703400EEE75A700470340081
:10237000EAE75A700670E7E730B583600023CCB215
:1023800043730133047342608373C4730D000068A8
:10239000012C06D9421C0133DBB2137003329C427C
:1023A000F9D1FF2129404B00591800234018033868
:1023B000437030BDF8B5CE46474606000C0080B5E8
:1023C000002907D04D0003686D18033D5A1957784E
:1023D000002F04D12000C0BCB946B046F8BD79003A
:1023E000C9190339884643445978894600215970F0
:1023F000517073683A00210080689847336800285C
:1024000014D042469A18947059195B5D002B00D085
:1024100053700F70270049463000FFF7CBFF39009B
:1024200002003000FFF774FF0400D3E74246414644
:102430005D19AF709A185B5C002B00D06B70147044
:10244000E9E7C046F0B557464546DE464E46E0B59C
:102450000D006B0001685B19DF1E0400C85D83B0CE
:102460000192CA19002850D043001B18033BCB1817
:102470005E78B446002E1AD1019E002E42D0E67B33
:10248000002E04D073009B19CB18033B5D70A37B17
:10249000002B00D1A573E57300282FD100235370C2
:1024A00003B0F0BCBB46B246A946A046F0BD7200E0
:1024B0006244033A89184A78904600224A7091464D
:1024C0005A70010032002000FFF722FF4346824687
:1024D000002B07D05B0021684344033BCB185A789C
:1024E000002A16D1424651462000FFF711FF21680D
:1024F000019BCA19002BC2D10028CFD043001B1862
:10250000033BCB1800219970C8E7019B002BB6D183
:10251000C4E75000801803380918487883464846B5
:102520004870587041462000FFF7F2FE5946804639
:102530002000FFF73FFF414602002000FFF7E8FEC2
:102540008046CFE7F0B557464546DE464E46E0B5F5
:1025500083B00191457B04006B0000685B19DF1EAE
:10256000C15DC219002952D04B005B18033BC31850
:102570005E78B446002E1CD1019E002E44D0E67B2E
:10258000002E04D073009B19C318033B5D70A37B1E
:10259000002B00D1A573E573002931D10023280059
:1025A0005370617303B0F0BCBB46B246A946A04667
:1025B000F0BD72006244033A8018427890460022CF
:1025C000427091465A7020003200FFF7A1FE434648
:1025D0008246002B07D05B0021684344033BCB18A5
:1025E0005A78002A17D1424651462000FFF790FE44
:1025F000019B01002068C219002BC0D10029CDD059
:102600004B005B18033BC31800209870C6E7019B82
:10261000002BB4D1C2E7500080180338091848785D
:10262000834648464870587041462000FFF770FEC8
:10263000594680462000FFF7BDFE414602002000BB
:10264000FFF766FE8046CEE770B5040000292CD067
:10265000437B8B422ED00568480040180338281869
:102660008278002A21D053009B18033BEA5CEE18C5
:102670008A4202D11BE0002A08D053009B18033B7A
:10268000EB185A788A42F6D142785A700023012218
:10269000837043702000FFF7D5FE617B02002000AD
:1026A000FFF736FE6073012000E0002070BD437824
:1026B0003370EBE701221900FFF7C4FE60730120BD
:1026C000F4E7C046F8B5040006200D0000F052FA09
:1026D000002844D02A4B2B49E21853425A41802308
:1026E000DB039C469205284B62441A60274B1A6014
:1026F00010008B689843FBD1214B8021E3185A428C
:102700005341234A5B0049009952062000F032FAF7
:102710002900C00000F09EFBC30921D14027012100
:10272000260080256162A36200232C36AD0135436B
:102730002B60062000F01EFA3900800000F08AFBB2
:102740006023E26A53406E221A4080235B013343C8
:102750001A60104B236310232B600D3BA364F8BD5C
:102760000D4A934203D900230C4F0D49D8E77F222D
:102770001040013040089F0119003F180300CFE7C7
:102780000080FCBF00C0004000E0004000F00040BE
:102790002009002001030000FEFF0000C0FF3F00F1
:1027A000FFFF0000F0B54546DE4657464E46E0B511
:1027B00083B001920C9A050088469A4200D974E0D1
:1027C0001A0E93461E023000002359460C9A00F060
:1027D0007FFB374B6C009C466419A400644463681B
:1027E0000700834200D260602B1FDBB29946012BA9
:1027F00035D9C02380229B01234312011A602D4B3F
:10280000AD0059599A46002905D0586900F022FBBD
:1028100001300138FDD1019A236852015340E02272
:102820001A4080235B0123431A604A46012A2FD9AC
:10283000802380229B01234312011A603000002371
:102840003A005946676000F043FB53465851012057
:1028500003B0F0BCBB46B246A946A046F0BD434615
:10286000012BC6D1C02303229B0123431A60023AE5
:10287000A3681A42FCD0019A236852015A40E0230F
:102880001A4080235B0123431A600A4AAD00924636
:1028900042462168514003220A401A600122434601
:1028A0009A40A3681A42FCD0C2E70020D0E7C04695
:1028B000008000400C07002030B50C2083B000F0F1
:1028C000B7F9FEF7F5FE00280ED0944B944A1A6033
:1028D0005A609A60DA601A615A619A61DA611A6222
:1028E000904A5A6203B030BD8F4CA06700F0A8F93F
:1028F00001228E4B1A60636C012BFCD103228C4B9E
:102900001A60894A936B012BFCD101330121894A5A
:1029100089480093043300F033F90523874A009374
:102920000121874800F02CF9864B5A68FF2A02D80B
:10293000802252005A608022784C7D4B216912011E
:10294000804D1A60002905D0606900F083FA0130DB
:102950000138FDD1E0217B4B02201A681140802212
:1029600052012A4311601968484003210140116057
:1029700004219A681142FCD08022802192012A43CE
:1029800009011160802252005A606F4B23616F4B26
:102990005968FF2900D85A600321644A6B4B1160C3
:1029A00002399A681142FCD0E0201A681040802257
:1029B00052011A4310601868484003210140022068
:1029C000116062498A681042FCD080229201134350
:1029D000802212011A6080225D4B52004A606361BE
:1029E0005C4B5968FF2900D85A6080225A4BE16934
:1029F0001201584D1A60002905D0606900F02AFACA
:102A000001300138FDD1E02252490B681A40802381
:102A10005B012B431A60802380229B012B43120110
:102A20001A6080223E4B52004A60E3614B4B59686A
:102A3000FF2900D85A608022494B216A1201474D74
:102A40001A60002905D0606900F004FA01300138ED
:102A5000FDD1E02241490B681A4080235B012B43E2
:102A60001A60802380229B012B4312011A6080236D
:102A700080225B004B602A4BD2022362394B59689B
:102A8000914200D25A608022374B616A1201354D63
:102A90001A60002905D0606900F0DCF901300138C6
:102AA000FDD1E0222F490B681A4080235B012B43A4
:102AB0001A60802380229B012B4312011A6080231D
:102AC000DB024B60174B6362284B5A68FF2A02D81F
:102AD000802252005A608022254BA1691201234DA9
:102AE0001A60002905D0606900F0B4F9013001389E
:102AF000FDD1E0221D490B681A4080235B012B4366
:102B00001A60802380229B012B4312011A608023CC
:102B10005B004B600E4BA361E4E6C0460C0700204F
:102B2000006CDC021BB70000008000403CB000409D
:102B300030B00040002F685900800240008C86476A
:102B400000C0024030800040001BB7003C800040C5
:102B5000405973075480004054B0004060800040EA
:102B600060B000406C8000406CB000404880004085
:102B700048B00040014B8000C05870470C0700204F
:102B8000F0B5C646040000B50C2090461F000E00AC
:102B900000F060F94101091A8D01691AC90009188C
:102BA0008901404600F056F9069B3F041A0323684A
:102BB0001743002B22DB1A4B1A4DE21853425A419D
:102BC00080235B019C461203174B62441A60174B2B
:102BD0001A601100AB689943FBD1C022231D9201FA
:102BE0001A4321232660A06013602368002BFCDABF
:102BF0000823E760136080BCB846F0BD3F2322681D
:102C00001340B342D7D1A3681B051B0D8342D2D119
:102C1000EE22E368D2021340BB42CCD1EBE7C046C0
:102C20000040FDBF00C0004000E0004000F0004058
:102C30008023024A9B000343D36270470080054013
:102C4000AA23064A1B0113602133FF33D3600449D2
:102C5000044B19605368002BFCDA704700400240B7
:102C600000B0FA00006002402C4B2D4A70B51A608B
:102C70002C4A2D4B2D491A6014008B689C43FBD1C4
:102C80002B4D2C4EB54208D2013E761BB60808CD1E
:102C9000984723000134B342F9D1FFF70DFE264ACD
:102CA000214B1A60214A9368DB43DB01DD09002BCD
:102CB000F9D14022214B224C224E9A675A671A675B
:102CC000DA66B44208D223682000002B20D00834F2
:102CD000FEF7D0FEB442F6D31B4E1C4CC022A168B6
:102CE000300000F033FCA660FEF70CFDFEF79AFE04
:102CF000FFF75CF8164C174EB44208D2013E361B63
:102D0000B60808CC98472B0001359E42F9D170BD1A
:102D10000834FEF7A1FEB442D5D3DDE700E0004061
:102D2000BFCDFBFEFE7F3C0000F0004000C0004035
:102D30007803002088030020FFFFFF0100F001401E
:102D400070030020780300200000002000ED00E068
:102D5000880300209003002000BEFDE710B5FFF7B8
:102D6000FBFFC0460FB400B5084883B000F020FD5B
:102D7000049B002B07D005A91800019100F018F85A
:102D8000034800F015FD0120FFF7E6FF583A001058
:102D9000683A001010B50148FFF7E4FF6C3A0010E4
:102DA00010B5002800D110BD00F0B6FCFBE7C0460E
:102DB00010B5094A0300146884B0002C08D0012221
:102DC00000910648524203A9A047012004B010BD5B
:102DD00000F0EEFC0020F9E794070020A12D001080
:102DE00001480421014B184750030020112E001008
:102DF000142310B50100188804331B88984710BDB0
:102E0000162310B50100188802331B88984710BD9F
:102E1000F8B54746CE4680B50F1E19D01423994603
:102E2000043304000025012698464B461888434683
:102E300021681B88984701C4431E984101354042D0
:102E40000640AF42F1D13000C0BCB946B046F8BD33
:102E50000126F8E7114A936F9B0813D2106651665A
:102E6000002905D0FFE7FFE7FFE7516F106F7047BC
:102E700004B5002801D00020C04300F029FD002146
:102E800004BDC046F0B5146E556E576F166FFFF750
:102E9000E5FF1466556657671667F0BD000000D061
:102EA00094464A4A926F9208624601D228E0C04690
:102EB000F0B5464E346E756E776F366F00F020F8C1
:102EC0009446424A14665566576716676246F0BDD7
:102ED00094463E4A926F9208624601D254E0C04640
:102EE000F0B53A4E346E756E776F366F00F04CF871
:102EF0009446364A14665566576716676246F0BDB3
:102F0000002B24DB11D000293EDA00B5C943404232
:102F100000D1013100F038F8C943404200D10131FD
:102F2000DB43524200D1013300BD002AEBD100281F
:102F300001D1002905D00020C90FC90701D1C04324
:102F4000410800B500F0BCFC0022002300BD00B524
:102F500000290ADBDB43524200D1013300F014F8B0
:102F6000C943404200D1013100BDC943404200D1B4
:102F70000131DB43524200D1013300F005F8DB435D
:102F8000524200D1013300BD002923D1002B18D1BA
:102F9000002A0CD0BC460D4F38667A66002100230B
:102FA000FFE7FFE7FFE77A6F386F67467047002853
:102FB00001D00748010000B500F082FC0022002388
:102FC00000BD02000B00002000217047000000D06F
:102FD000FFFFFFFF002B00D0BFE0130C28D1002A19
:102FE000E7D080B4114F39667A66FFE7FFE730B467
:102FF000040C7B6F396F1B0423433B667A66FFE743
:10300000FFE7FFE7C04684B27B6F3D6F1B0423439D
:103010003B667A66FFE7FFE7C04600232C042D0CD1
:103020007A6F386F00196941B0BC7047000000D05A
:10303000F0B594460025140E01D112020835140F84
:1030400001D112010435940F01D192000235D40F41
:1030500001D152000135D40B0134254F7C66254C3B
:103060003C660E0C93B2FFE7FFE7FFE73C6F664359
:10307000360C7703BE467343DF0B5B04C01AB941BD
:10308000130C7343DB18C91ACE086643360CB644DA
:1030900093B273431F0F1B01C01AB941130C734342
:1030A0001F0B1B05C01AB941860D8F023E436643B4
:1030B000360C092D24DB520A7243801A7703460A24
:1030C0006643360C16235B1BDE40DF40BF196446A7
:1030D0006643821B7046043506330100D940A84080
:1030E000C01900D30131A24206D20023F0BD000076
:1030F000000000D0FFFFFFFF121B0130F3D3F1E708
:1031000009277F1BFE406446A2B27243801A00D298
:103110000139220C7243130C1204821A99410B00DC
:103120007046043513370100F940A840801900D3D8
:103130000131002B02D1A2420AD2F0BD013000D3EE
:103140000131121BFAD2013BF8D1A24200D2F0BDEC
:10315000013000D30131121BF7E7F0B51C0C00D091
:1031600080E00CB400251C0A04D11B02160E334368
:10317000120208351C0B04D11B01160F3343120138
:1031800004359C0B04D19B00960F3343920002350B
:10319000DC0B02D192185B4101351C009718644189
:1031A0000134464F7C66464C3C660E0CFFE7FFE759
:1031B000FFE7C0463C6F6643360C7703BE4697B2C6
:1031C0007743C01B00D20139C01B00D201399FB226
:1031D0007743C91BC91B170C77437E04FF0B801B69
:1031E000B941CE086643360C0C2D33DBB644120BC6
:1031F0001F053A431B0B97B27743C01B00D201391E
:103200009FB27743C91B170C77433E043F0C801BCA
:10321000B941860D8F023E43664329277F1BFE403E
:103220000C3D7746AF40BF1930BCA2B2ABB272437F
:103230007343801A9941220C7243130C1204801AB2
:10324000994102000B000137001BA941F9D2781EF9
:103250000021F0BD0C277F1BFE4077467F0BAF405F
:10326000FF19E0E700245D1C07D0144F7D66396626
:10327000FFE7FFE7FFE7FFE73C6F95B29EB26543CC
:103280006643401BB141150C1E0C65436643360472
:103290002F0C3E432D04401BB141994204D2020041
:1032A0000B0020000021F0BD01D19042F7D3801A1D
:1032B000994101349942F2D3F6E70000000000D0B2
:1032C000FFFFFFFF48404140484018B4134B5B6884
:1032D000019308BD18B4114B1B68019308BD9446B7
:1032E0000F4A926F920805D2624618B40B4BDB6806
:1032F000019308BD0A4AF0B5146E556E576F166FEC
:103300006246FFF7F2FF064A14665566576716676E
:10331000F0BD18B4014B9B68019308BD90040020D8
:10332000000000D00021002805D17047C117484097
:10333000401AFAD0C90713B5064B1B6898470CBC56
:10334000441CA2401005120B0349091B090519432F
:10335000114310BDE80700201F04000018B4024B01
:10336000DB6F019308BD00009004002010B50148F8
:10337000FFF7F8FC783A0010132370B51D78012D83
:1033800011D035DD1C48FFF73BFD1C4C01008022AD
:10339000200000F0DBF8022D27D01948FFF728FDA8
:1033A000184B186070BD184B144C23606360A36009
:1033B000E36023616361A361E36123626362A362EB
:1033C000E36223636363A363E36323646364A364CB
:1033D000E36423656365A365E36523666366A366AB
:1033E000E36623676367A367E367084BA364D4E7D7
:1033F000024C064BA364D0E7534400009004002025
:103400004C330000E80700206D3300101134001029
:1034100007B5604601880A0A0230DF2AFAD1C9B22C
:10342000820804D3028840880004104300E000684A
:10343000014A5050039007BD90040020514343437C
:10344000C9188C46110C83B24B4310B4040C614371
:1034500092B280B2504362431C041B0C001910BC92
:1034600059411304120CC018514161447047491A64
:10347000002807D108467047C10FC90700D5404250
:10348000002817D0F44603B40B4B1B68984706BCC2
:1034900081409E384042803107D20B0607D0490058
:1034A000490AC0051043084360470130F8E7490A5C
:1034B0008902F5E770470000E8070020014B5B6ACE
:1034C00018470000EC07002010B50148FFF74AFC40
:1034D000D43A0010132310B510481C78FFF790FC65
:1034E0000100012C0AD003DD80220D4800F02EF8E7
:1034F0000C48FFF77DFC0C4B186010BD084C5422A3
:10350000200000F023F82300084A803321680029B6
:1035100000D122600434A342F8D1E9E75346000009
:10352000EC0700204C330000E8070020C9340010ED
:1035300001480421014B184760030020112E0010A0
:10354000014B1B681847000060030020014B5B68BB
:103550001847000060030020030010B508001100A8
:103560001B68984710BDC046F0B546464F46D64644
:10357000C0B5437D80460E001700002B46D0002AC0
:103580003FDD4B1E9946244B0125002400209A461E
:103590000DE04B461B5D0D3B5A425341325DDBB2A1
:1035A0000A2A0BD02B00013401359F421ADD002C72
:1035B000EFD14346325D1B7D0A2AF3D1002BF1D1B6
:1035C000A04204DA4346211A1B6830189847434644
:1035D00050461B6802219847013428002B00013512
:1035E0009F42E4DC874204DD4346391A1B683018E9
:1035F0009847F619013E33780D3B5A4253414246F3
:103600001375E0BCBA46B146A846F0BD0368110088
:1036100030009847F5E7C046083B0010F0B5DE469D
:1036200057464E464546E0B585B017001C000600DB
:103630000D00FEF78FFD0023304A12184B41002B7E
:1036400058DB2F4908008A4600F04AF901906B1CAC
:1036500003D1300000F0F2F80500002C25D1294BF1
:103660009846294B1C68002C15D0002F20D1274FDD
:1036700002E02469002C0ED02368002BF9D03B68AF
:10368000002B01D0A342F4D120002A003100C04712
:103690002469002CF0D1019B002B27D105B0F0BC90
:1036A000BB46B246A946A046F0BD194B9846D8E79E
:1036B000164B994602ABDF1D0A239B4602E02469A4
:1036C000002CE8D02368002BF9D04B461B68002B58
:1036D00001D0A342F3D12A0031002000C0475B464D
:1036E0000122390020003B70C047E8E7504600F057
:1036F000DFF8D3E70122074B5242A2E740420F0016
:10370000700300206935001074070020780700203E
:1037100059350010FFFFFF7FF0B5CE46474680B514
:1037200083B06B460600DD1D2870FEF713FD0023F5
:103730001A4A12184B41002B2BDB19490800884606
:1037400000F0CEF8174B81461C68002C14D0164FA1
:1037500002E02469002C0FD02368002BF9D03B68CD
:10376000002B01D0A342F4D1200001222900FFF751
:10377000FBFE2469002CEFD14B46002B05D1300015
:1037800003B0C0BCB946B046F0BD404600F090F86A
:10379000F5E70122054B5242CFE7C04640420F00F9
:1037A000700300207407002078070020FFFFFF7FD0
:1037B00070B5040000F042F800230100050001226A
:1037C0002000FFF72BFF084B1C68002C06D0636815
:1037D000002B05D098472469002CF8D1280070BD33
:1037E0002469002CF3D1F9E77407002010B50248D2
:1037F00000F004F810BDC046DC07002030B50025FD
:1038000089B004000922002101A80095FFF798FE65
:103810000922002105A80495FFF792FE4B236A4672
:103820006846137004A90D2200F03AF81521082209
:1038300020006944FFF78AFE09B030BD10B5830748
:103840000AD00300032102E001330B4205D01A78AD
:10385000002AF9D1181A10BD030019680C4A0D4C42
:103860008A188A4322420FD15968094A04338A18B8
:103870008A43224208D15968054A04338A188A4388
:103880002242F1D000E001331A78002AFBD1E1E7AF
:10389000FFFEFEFE80808080F8B5C046000000007C
:1038A00001B40248844601BC604700BFFD0100200E
:1038B00001B40248844601BC604700BF5D0100209E
:1038C00001B40248844601BC604700BFC102002029
:1038D00001B40248844601BC604700BFC102002019
:1038E00001B40248844601BC604700BFC10000200B
:1038F0008A0800109E080010B2080010C6080010C8
:10390000DA08001034090010480900105C090010A2
:10391000700900109A09001086080010860800102F
:103920008608001086080010720700104C0F001067
:103930001C0F0010360F0010620F0010360F001021
:10394000360F0010360F0010360F0010360F001023
:10395000360F0010360F0010360F0010360F001013
:10396000360F0010360F0010360F0010360F001003
:10397000360F0010360F0010360F0010360F0010F3
:10398000360F0010360F0010360F0010700F0010A9
:10399000D60F001020100010360F0010360F001048
:1039A000360F0010360F0010360F0010360F0010C3
:1039B000360F0010360F0010360F0010360F0010B3
:1039C000360F0010360F0010360F001030100010A8
:1039D000360F001054100010360F0010360F001074
:1039E000360F0010360F0010360F0010360F001083
:1039F000360F00103A0F0010534153204D415445EB
:103A0000203230323320522644204669726D77616D
:103A1000726520563400000000000568656C6C6F0C
:103A200006005250197CA0B6F8390010140C0B0A8D
:103A300018191213486172647761726520616C61B4
:103A4000726D20256420616C726561647920636CFD
:103A500061696D65640000000A2A2A2A2050414EDF
:103A60004943202A2A2A0A000A0000004861726499
:103A700020617373657274006D697373696E67207A
:103A8000646F75626C652066756E6374696F6E0035
:103A900052656C6561736500626F6F74325F676554
:103AA0006E657269635F303368000000312E352E19
:103AB0003000000061646166727569745F666561FB
:103AC000746865725F727032303430006669726D8E
:103AD00077617265000000004A756E20323920322D
:103AE0003032330006005250BBFF3CB6B43A0010EF
:103AF00006005250E182887F983A0010060052502A
:0C3B0000D3F07542903A00100D0A00004E
:103B0C00203A0010AC020010A00200109402001029
:103B1C00E43A001088020010F03A0010FC3A001051
:103B2C00F0B5C646150000B504001E000268EFF3A0
:103B3C00108172B61368002BFCD0BFF35F8F042387
:103B4C00E356002B2DDB2268BFF35F8F0020106043
:103B5C0081F31088D0221206127852B290469A4203
:103B6C0003D1002080BCB846F0BD00270BE02368D1
:103B7C00BFF35F8F1F6081F310882800310000F0C5
:103B8C00D3F80028EDD12268EFF3108172B61368D8
:103B9C00002BFCD0BFF35F8F23797F2BE7D94346F3
:103BAC0002E0D0231B061B6823712368BFF35F8FD1
:103BBC0000221A6081F310880120D3E70268EFF32A
:103BCC00108172B61368002BFCD0BFF35F8FFF23FC
:103BDC0003710368BFF35F8F00221A6081F31088B2
:103BEC0040BF7047084810B50378002B0AD18023DA
:103BFC000649074A5B051C68CC5004339342FAD142
:103C0C000123037010BDC046240A0020D00500100B
:103C1C000001001010B5024B0133984710BDC0468F
:103C2C00D0050020034B1A68C0239B009343024A23
:103C3C00136070470C8001400C900140054B1A68D2
:103C4C0080239B005340C02292001340024A136011
:103C5C007047C0460C8001400C9001401423F0B515
:103C6C00D6464F4646469A46814618880433C0B518
:103C7C0098460E001B8827491400984753460700A6
:103C8C001888434624491B889847534605001888D2
:103C9C00434622491B8898478046FFF7A3FFB84745
:103CAC00A847FFF7CBFF002C1BD0C0212200082710
:103CBC00022049053D008B6A1D4018420BD0002C98
:103CCC0009D0131B0D2B1FD84B461B78013C0B66E0
:103CDC0001239C46E1442300002D0CD11343002BFF
:103CEC00E8D1FFF79FFFC047FFF794FFE0BCBA464F
:103CFC00B146A846F0BD002AF1D00B6E013A3370E4
:103D0C00130001362343EAE7002DD3D0002AD1D08B
:103D1C00F3E7C04649460000455800004643000002
:103D2C007047C0460000000001B40248844601BC44
:103D3C00604700BF092000101000000000000000C8
:103D4C000000010000000000000000000000020064
:103D5C000000000000000000000003000000000054
:103D6C00000000000000FF000000000001B54868E2
:103D7C0001318E460047704609380149884701BD1C
:103D8C00711900103C03002000000000900300207B
:103D9C003407002000000000000000004407002051
:103DAC0000000000000000001000000000000000F7
:103DBC00503300004C3300005433000052330000E9
:103DCC004D5300004D4300005334000043340000B9
:103DDC00000000000000000031350010E12D001043
:103DEC0079330010D534001031030010ED3700107A
:04000005100001E9FD
:00000001FF
